{
  "contractName": "Product",
  "abi": [
    {
      "inputs": [],
      "name": "max_products",
      "outputs": [
        {
          "internalType": "uint256",
          "name": "",
          "type": "uint256"
        }
      ],
      "stateMutability": "view",
      "type": "function",
      "constant": true
    },
    {
      "inputs": [
        {
          "internalType": "uint256",
          "name": "",
          "type": "uint256"
        }
      ],
      "name": "productItems",
      "outputs": [
        {
          "internalType": "address",
          "name": "creator",
          "type": "address"
        },
        {
          "internalType": "string",
          "name": "productName",
          "type": "string"
        },
        {
          "internalType": "uint256",
          "name": "productId",
          "type": "uint256"
        },
        {
          "internalType": "string",
          "name": "date",
          "type": "string"
        }
      ],
      "stateMutability": "view",
      "type": "function",
      "constant": true
    },
    {
      "inputs": [],
      "name": "products",
      "outputs": [
        {
          "internalType": "uint256",
          "name": "",
          "type": "uint256"
        }
      ],
      "stateMutability": "view",
      "type": "function",
      "constant": true
    },
    {
      "inputs": [
        {
          "internalType": "string",
          "name": "_text",
          "type": "string"
        },
        {
          "internalType": "string",
          "name": "_date",
          "type": "string"
        },
        {
          "internalType": "uint256",
          "name": "_id",
          "type": "uint256"
        }
      ],
      "name": "addProductItem",
      "outputs": [
        {
          "internalType": "bool",
          "name": "",
          "type": "bool"
        }
      ],
      "stateMutability": "nonpayable",
      "type": "function"
    },
    {
      "inputs": [],
      "name": "getProductItems",
      "outputs": [
        {
          "internalType": "uint256[]",
          "name": "",
          "type": "uint256[]"
        },
        {
          "internalType": "string[]",
          "name": "",
          "type": "string[]"
        }
      ],
      "stateMutability": "view",
      "type": "function",
      "constant": true
    },
    {
      "inputs": [
        {
          "internalType": "string",
          "name": "_a",
          "type": "string"
        },
        {
          "internalType": "string",
          "name": "_b",
          "type": "string"
        }
      ],
      "name": "concat",
      "outputs": [
        {
          "internalType": "string",
          "name": "",
          "type": "string"
        }
      ],
      "stateMutability": "pure",
      "type": "function",
      "constant": true
    },
    {
      "inputs": [
        {
          "internalType": "uint256",
          "name": "_productId",
          "type": "uint256"
        }
      ],
      "name": "searchProduct",
      "outputs": [
        {
          "internalType": "string",
          "name": "",
          "type": "string"
        }
      ],
      "stateMutability": "view",
      "type": "function",
      "constant": true
    },
    {
      "inputs": [
        {
          "internalType": "uint256",
          "name": "index",
          "type": "uint256"
        }
      ],
      "name": "deleteProductItem",
      "outputs": [
        {
          "internalType": "bool",
          "name": "success",
          "type": "bool"
        }
      ],
      "stateMutability": "nonpayable",
      "type": "function"
    }
  ],
  "bytecode": "0x6080604052620f424060005534801561001757600080fd5b50611497806100276000396000f3fe608060405234801561001057600080fd5b50600436106100885760003560e01c806389c19ddb1161005b57806389c19ddb1461013b5780638c45b21e1461016b578063c71e261f1461018a578063caaf2751146101a857610088565b80632f34a3741461008d57806336da0fa0146100bd5780633719fd58146100db5780633cde01b51461010b575b600080fd5b6100a760048036038101906100a29190610cbc565b6101db565b6040516100b49190610d04565b60405180910390f35b6100c56103b4565b6040516100d29190610d2e565b60405180910390f35b6100f560048036038101906100f09190610e8f565b6103ba565b6040516101029190610d04565b60405180910390f35b61012560048036038101906101209190610cbc565b6104bb565b6040516101329190610fa2565b60405180910390f35b61015560048036038101906101509190610fc4565b61060a565b6040516101629190610fa2565b60405180910390f35b6101736107a0565b604051610181929190611206565b60405180910390f35b610192610989565b60405161019f9190610d2e565b60405180910390f35b6101c260048036038101906101bd9190610cbc565b610992565b6040516101d2949392919061127e565b60405180910390f35b600060018054905082106101f257600090506103af565b60008290505b600180805490506102099190611300565b811015610326576001808261021e9190611334565b8154811061022f5761022e61138a565b5b9060005260206000209060040201600182815481106102515761025061138a565b5b90600052602060002090600402016000820160009054906101000a900473ffffffffffffffffffffffffffffffffffffffff168160000160006101000a81548173ffffffffffffffffffffffffffffffffffffffff021916908373ffffffffffffffffffffffffffffffffffffffff16021790555060018201816001019080546102da906113e8565b6102e5929190610b02565b50600282015481600201556003820181600301908054610304906113e8565b61030f929190610b02565b50905050808061031e90611419565b9150506101f8565b5060018080805490506103399190611300565b8154811061034a5761034961138a565b5b9060005260206000209060040201600080820160006101000a81549073ffffffffffffffffffffffffffffffffffffffff02191690556001820160006103909190610b8f565b60028201600090556003820160006103a89190610b8f565b5050600190505b919050565b60005481565b60008060405180608001604052803373ffffffffffffffffffffffffffffffffffffffff168152602001868152602001848152602001858152509050600181908060018154018082558091505060019003906000526020600020906004020160009091909190915060008201518160000160006101000a81548173ffffffffffffffffffffffffffffffffffffffff021916908373ffffffffffffffffffffffffffffffffffffffff1602179055506020820151816001019080519060200190610485929190610bcf565b506040820151816002015560608201518160030190805190602001906104ac929190610bcf565b50505060019150509392505050565b606060006040518060400160405280600d81526020017f70726f647563744e616d653a2000000000000000000000000000000000000000815250905060005b60018054905081101561060057836001828154811061051c5761051b61138a565b5b906000526020600020906004020160020154036105ed576105ea826001838154811061054b5761054a61138a565b5b90600052602060002090600402016001018054610567906113e8565b80601f0160208091040260200160405190810160405280929190818152602001828054610593906113e8565b80156105e05780601f106105b5576101008083540402835291602001916105e0565b820191906000526020600020905b8154815290600101906020018083116105c357829003601f168201915b505050505061060a565b91505b80806105f890611419565b9150506104fa565b5080915050919050565b6060600083905060008390506000815183516106269190611334565b67ffffffffffffffff81111561063f5761063e610d64565b5b6040519080825280601f01601f1916602001820160405280156106715781602001600182028036833780820191505090505b50905060008190506000805b8551811015610705578581815181106106995761069861138a565b5b602001015160f81c60f81b8383806106b090611419565b9450815181106106c3576106c261138a565b5b60200101907effffffffffffffffffffffffffffffffffffffffffffffffffffffffffffff1916908160001a90535080806106fd90611419565b91505061067d565b5060005b8451811015610791578481815181106107255761072461138a565b5b602001015160f81c60f81b83838061073c90611419565b94508151811061074f5761074e61138a565b5b60200101907effffffffffffffffffffffffffffffffffffffffffffffffffffffffffffff1916908160001a905350808061078990611419565b915050610709565b50819550505050505092915050565b6060806000600180549050905060008167ffffffffffffffff8111156107c9576107c8610d64565b5b6040519080825280602002602001820160405280156107f75781602001602082028036833780820191505090505b50905060008267ffffffffffffffff81111561081657610815610d64565b5b60405190808252806020026020018201604052801561084957816020015b60608152602001906001900390816108345790505b50905060005b8381101561097b576001818154811061086b5761086a61138a565b5b9060005260206000209060040201600201548382815181106108905761088f61138a565b5b602002602001018181525050600181815481106108b0576108af61138a565b5b906000526020600020906004020160010180546108cc906113e8565b80601f01602080910402602001604051908101604052809291908181526020018280546108f8906113e8565b80156109455780601f1061091a57610100808354040283529160200191610945565b820191906000526020600020905b81548152906001019060200180831161092857829003601f168201915b505050505082828151811061095d5761095c61138a565b5b6020026020010181905250808061097390611419565b91505061084f565b508181945094505050509091565b60008054905090565b600181815481106109a257600080fd5b90600052602060002090600402016000915090508060000160009054906101000a900473ffffffffffffffffffffffffffffffffffffffff16908060010180546109eb906113e8565b80601f0160208091040260200160405190810160405280929190818152602001828054610a17906113e8565b8015610a645780601f10610a3957610100808354040283529160200191610a64565b820191906000526020600020905b815481529060010190602001808311610a4757829003601f168201915b505050505090806002015490806003018054610a7f906113e8565b80601f0160208091040260200160405190810160405280929190818152602001828054610aab906113e8565b8015610af85780601f10610acd57610100808354040283529160200191610af8565b820191906000526020600020905b815481529060010190602001808311610adb57829003601f168201915b5050505050905084565b828054610b0e906113e8565b90600052602060002090601f016020900481019282610b305760008555610b7e565b82601f10610b415780548555610b7e565b82800160010185558215610b7e57600052602060002091601f016020900482015b82811115610b7d578254825591600101919060010190610b62565b5b509050610b8b9190610c55565b5090565b508054610b9b906113e8565b6000825580601f10610bad5750610bcc565b601f016020900490600052602060002090810190610bcb9190610c55565b5b50565b828054610bdb906113e8565b90600052602060002090601f016020900481019282610bfd5760008555610c44565b82601f10610c1657805160ff1916838001178555610c44565b82800160010185558215610c44579182015b82811115610c43578251825591602001919060010190610c28565b5b509050610c519190610c55565b5090565b5b80821115610c6e576000816000905550600101610c56565b5090565b6000604051905090565b600080fd5b600080fd5b6000819050919050565b610c9981610c86565b8114610ca457600080fd5b50565b600081359050610cb681610c90565b92915050565b600060208284031215610cd257610cd1610c7c565b5b6000610ce084828501610ca7565b91505092915050565b60008115159050919050565b610cfe81610ce9565b82525050565b6000602082019050610d196000830184610cf5565b92915050565b610d2881610c86565b82525050565b6000602082019050610d436000830184610d1f565b92915050565b600080fd5b600080fd5b6000601f19601f8301169050919050565b7f4e487b7100000000000000000000000000000000000000000000000000000000600052604160045260246000fd5b610d9c82610d53565b810181811067ffffffffffffffff82111715610dbb57610dba610d64565b5b80604052505050565b6000610dce610c72565b9050610dda8282610d93565b919050565b600067ffffffffffffffff821115610dfa57610df9610d64565b5b610e0382610d53565b9050602081019050919050565b82818337600083830152505050565b6000610e32610e2d84610ddf565b610dc4565b905082815260208101848484011115610e4e57610e4d610d4e565b5b610e59848285610e10565b509392505050565b600082601f830112610e7657610e75610d49565b5b8135610e86848260208601610e1f565b91505092915050565b600080600060608486031215610ea857610ea7610c7c565b5b600084013567ffffffffffffffff811115610ec657610ec5610c81565b5b610ed286828701610e61565b935050602084013567ffffffffffffffff811115610ef357610ef2610c81565b5b610eff86828701610e61565b9250506040610f1086828701610ca7565b9150509250925092565b600081519050919050565b600082825260208201905092915050565b60005b83811015610f54578082015181840152602081019050610f39565b83811115610f63576000848401525b50505050565b6000610f7482610f1a565b610f7e8185610f25565b9350610f8e818560208601610f36565b610f9781610d53565b840191505092915050565b60006020820190508181036000830152610fbc8184610f69565b905092915050565b60008060408385031215610fdb57610fda610c7c565b5b600083013567ffffffffffffffff811115610ff957610ff8610c81565b5b61100585828601610e61565b925050602083013567ffffffffffffffff81111561102657611025610c81565b5b61103285828601610e61565b9150509250929050565b600081519050919050565b600082825260208201905092915050565b6000819050602082019050919050565b61107181610c86565b82525050565b60006110838383611068565b60208301905092915050565b6000602082019050919050565b60006110a78261103c565b6110b18185611047565b93506110bc83611058565b8060005b838110156110ed5781516110d48882611077565b97506110df8361108f565b9250506001810190506110c0565b5085935050505092915050565b600081519050919050565b600082825260208201905092915050565b6000819050602082019050919050565b600082825260208201905092915050565b600061114282610f1a565b61114c8185611126565b935061115c818560208601610f36565b61116581610d53565b840191505092915050565b600061117c8383611137565b905092915050565b6000602082019050919050565b600061119c826110fa565b6111a68185611105565b9350836020820285016111b885611116565b8060005b858110156111f457848403895281516111d58582611170565b94506111e083611184565b925060208a019950506001810190506111bc565b50829750879550505050505092915050565b60006040820190508181036000830152611220818561109c565b905081810360208301526112348184611191565b90509392505050565b600073ffffffffffffffffffffffffffffffffffffffff82169050919050565b60006112688261123d565b9050919050565b6112788161125d565b82525050565b6000608082019050611293600083018761126f565b81810360208301526112a58186610f69565b90506112b46040830185610d1f565b81810360608301526112c68184610f69565b905095945050505050565b7f4e487b7100000000000000000000000000000000000000000000000000000000600052601160045260246000fd5b600061130b82610c86565b915061131683610c86565b925082821015611329576113286112d1565b5b828203905092915050565b600061133f82610c86565b915061134a83610c86565b9250827fffffffffffffffffffffffffffffffffffffffffffffffffffffffffffffffff0382111561137f5761137e6112d1565b5b828201905092915050565b7f4e487b7100000000000000000000000000000000000000000000000000000000600052603260045260246000fd5b7f4e487b7100000000000000000000000000000000000000000000000000000000600052602260045260246000fd5b6000600282049050600182168061140057607f821691505b602082108103611413576114126113b9565b5b50919050565b600061142482610c86565b91507fffffffffffffffffffffffffffffffffffffffffffffffffffffffffffffffff8203611456576114556112d1565b5b60018201905091905056fea2646970667358221220ba522795c73c1f51459ad1acd7250cbca7c63ef107d0b6eae55a6a69a0d1f9c264736f6c634300080e0033",
  "immutableReferences": {},
  "source": "// SPDX-License-Identifier: MIT\r\npragma solidity ^0.8.11;\r\n\r\ncontract Product {\r\n    uint public max_products = 1000000;\r\n\r\n    function products() external view returns (uint) {\r\n        return max_products;\r\n    }\r\n    \r\n    ProductItem[] public productItems;\r\n\r\n    struct ProductItem{\r\n        address creator;\r\n        string productName;\r\n        uint256 productId;\r\n        string date;\r\n    }\r\n    \r\n    \r\n    \r\n    function addProductItem(string memory _text, string memory _date, uint256 _id) public returns (bool) {\r\n        ProductItem memory newItem = ProductItem({creator: msg.sender, productName: _text, productId: _id, date: _date});\r\n        productItems.push(newItem);\r\n        return true;\r\n    }\r\n\r\n    function getProductItems() view public returns (uint256[] memory, string[] memory) {\r\n        uint length = productItems.length;\r\n\r\n        uint256[] memory ids = new uint256[](length);\r\n        string[] memory productNames = new string[](length);\r\n\r\n        for (uint i = 0; i < length; i++) {\r\n            ids[i] = productItems[i].productId;\r\n            productNames[i] = productItems[i].productName;\r\n        }\r\n\r\n        return (ids, productNames);\r\n    }\r\n\r\n     function concat(string memory _a, string memory _b) public pure returns (string memory){\r\n        bytes memory bytes_a = bytes(_a);\r\n        bytes memory bytes_b = bytes(_b);\r\n        string memory length_ab = new string(bytes_a.length + bytes_b.length);\r\n        bytes memory bytes_c = bytes(length_ab);\r\n        uint k = 0;\r\n        for (uint i = 0; i < bytes_a.length; i++) bytes_c[k++] = bytes_a[i];\r\n        for (uint i = 0; i < bytes_b.length; i++) bytes_c[k++] = bytes_b[i];\r\n        return string(bytes_c);\r\n    }\r\n     \r\n     function searchProduct(uint _productId)  public view returns (string memory) {\r\n        string memory output = \"productName: \";\r\n\r\n        for (uint i = 0; i < productItems.length; i++){\r\n            if (productItems[i].productId == _productId){\r\n                        output=concat(output, productItems[i].productName);\r\n            }\r\n        }\r\n        return output;\r\n    }\r\n    \r\n    function deleteProductItem(uint index) public returns (bool success) {\r\n        if (index >= productItems.length) return false;\r\n\r\n        for (uint i = index; i < productItems.length - 1; i++){\r\n            productItems[i] = productItems[i+1];\r\n        }\r\n\r\n        delete productItems[productItems.length - 1];\r\n        return true;\r\n    }\r\n    \r\n}",
  "sourcePath": "C:\\Users\\daifa\\OneDrive\\Desktop\\CheckMe\\front-end\\contracts\\Product.sol",
  "compiler": {
    "name": "solc",
    "version": "0.8.14+commit.80d49f37.Emscripten.clang"
  },
  "schemaVersion": "3.4.7",
  "updatedAt": "2022-06-17T14:56:44.397Z",
  "networkType": "ethereum",
  "devdoc": {
    "kind": "dev",
    "methods": {},
    "version": 1
  },
  "userdoc": {
    "kind": "user",
    "methods": {},
    "version": 1
  }
}