{
  "contractName": "Product",
  "abi": [
    {
      "inputs": [],
      "name": "max_products",
      "outputs": [
        {
          "internalType": "uint256",
          "name": "",
          "type": "uint256"
        }
      ],
      "stateMutability": "view",
      "type": "function",
      "constant": true
    },
    {
      "inputs": [],
      "name": "products",
      "outputs": [
        {
          "internalType": "uint256",
          "name": "",
          "type": "uint256"
        }
      ],
      "stateMutability": "view",
      "type": "function",
      "constant": true
    }
  ],
  "bytecode": "0x6080604052620f424060005534801561001757600080fd5b5060e0806100266000396000f3fe6080604052348015600f57600080fd5b506004361060325760003560e01c806336da0fa0146037578063c71e261f146051575b600080fd5b603d606b565b604051604891906091565b60405180910390f35b60576071565b604051606291906091565b60405180910390f35b60005481565b60008054905090565b6000819050919050565b608b81607a565b82525050565b600060208201905060a460008301846084565b9291505056fea26469706673582212200de7e1a7e1f5681321113b367b72e0456548af9358035a87432b03d484cbb30a64736f6c634300080e0033",
  "immutableReferences": {},
  "source": "// SPDX-License-Identifier: MIT\r\npragma solidity ^0.8.11;\r\n\r\ncontract Product {\r\n    uint public max_products = 1000000;\r\n\r\n    function products() external view returns (uint) {\r\n        return max_products;\r\n    }\r\n}",
  "sourcePath": "C:\\Users\\Zakaria Dani\\Desktop\\ProjetFS\\CheckMe\\front-end\\contracts\\Product.sol",
  "compiler": {
    "name": "solc",
    "version": "0.8.14+commit.80d49f37.Emscripten.clang"
  },
  "schemaVersion": "3.4.4",
  "updatedAt": "2022-06-06T16:47:15.813Z",
  "networkType": "ethereum",
  "devdoc": {
    "kind": "dev",
    "methods": {},
    "version": 1
  },
  "userdoc": {
    "kind": "user",
    "methods": {},
    "version": 1
  }
}