{
  "contractName": "Product",
  "abi": [
    {
      "inputs": [],
      "name": "max_products",
      "outputs": [
        {
          "internalType": "uint256",
          "name": "",
          "type": "uint256"
        }
      ],
      "stateMutability": "view",
      "type": "function",
      "constant": true
    },
    {
      "inputs": [],
      "name": "products",
      "outputs": [
        {
          "internalType": "uint256",
          "name": "",
          "type": "uint256"
        }
      ],
      "stateMutability": "view",
      "type": "function",
      "constant": true
    }
  ],
  "bytecode": "0x6080604052620f424060005534801561001757600080fd5b5060e0806100266000396000f3fe6080604052348015600f57600080fd5b506004361060325760003560e01c806336da0fa0146037578063c71e261f146051575b600080fd5b603d606b565b604051604891906091565b60405180910390f35b60576071565b604051606291906091565b60405180910390f35b60005481565b60008054905090565b6000819050919050565b608b81607a565b82525050565b600060208201905060a460008301846084565b9291505056fea264697066735822122086bbc0c3a8604730a25e1a1d53d093be0c16872f605d15fce1dee1f27b48542764736f6c634300080e0033",
  "immutableReferences": {},
  "source": "// SPDX-License-Identifier: MIT\npragma solidity ^0.8.11;\n\ncontract Product {\n    uint public max_products = 1000000;\n\n    function products() external view returns (uint) {\n        return max_products;\n    }\n}",
  "sourcePath": "/home/dani/Desktop/Work/CheckMe/front-end/contracts/Product.sol",
  "compiler": {
    "name": "solc",
    "version": "0.8.14+commit.80d49f37.Emscripten.clang"
  },
  "schemaVersion": "3.4.7",
  "updatedAt": "2022-06-17T10:28:31.996Z",
  "networkType": "ethereum",
  "devdoc": {
    "kind": "dev",
    "methods": {},
    "version": 1
  },
  "userdoc": {
    "kind": "user",
    "methods": {},
    "version": 1
  }
}