{
  "contractName": "Product",
  "abi": [
    {
      "inputs": [],
      "name": "max_products",
      "outputs": [
        {
          "internalType": "uint256",
          "name": "",
          "type": "uint256"
        }
      ],
      "stateMutability": "view",
      "type": "function",
      "constant": true
    },
    {
      "inputs": [
        {
          "internalType": "uint256",
          "name": "",
          "type": "uint256"
        }
      ],
      "name": "productItems",
      "outputs": [
        {
          "internalType": "address",
          "name": "creator",
          "type": "address"
        },
        {
          "internalType": "string",
          "name": "productName",
          "type": "string"
        },
        {
          "internalType": "uint256",
          "name": "productId",
          "type": "uint256"
        },
        {
          "internalType": "string",
          "name": "date",
          "type": "string"
        }
      ],
      "stateMutability": "view",
      "type": "function",
      "constant": true
    },
    {
      "inputs": [],
      "name": "products",
      "outputs": [
        {
          "internalType": "uint256",
          "name": "",
          "type": "uint256"
        }
      ],
      "stateMutability": "view",
      "type": "function",
      "constant": true
    },
    {
      "inputs": [
        {
          "internalType": "string",
          "name": "_text",
          "type": "string"
        },
        {
          "internalType": "string",
          "name": "_date",
          "type": "string"
        },
        {
          "internalType": "uint256",
          "name": "_id",
          "type": "uint256"
        }
      ],
      "name": "addProductItem",
      "outputs": [
        {
          "internalType": "bool",
          "name": "",
          "type": "bool"
        }
      ],
      "stateMutability": "nonpayable",
      "type": "function"
    },
    {
      "inputs": [],
      "name": "getProductItems",
      "outputs": [
        {
          "internalType": "uint256[]",
          "name": "",
          "type": "uint256[]"
        },
        {
          "internalType": "string[]",
          "name": "",
          "type": "string[]"
        }
      ],
      "stateMutability": "view",
      "type": "function",
      "constant": true
    },
    {
      "inputs": [
        {
          "internalType": "uint256",
          "name": "index",
          "type": "uint256"
        }
      ],
      "name": "deleteProductItem",
      "outputs": [
        {
          "internalType": "bool",
          "name": "success",
          "type": "bool"
        }
      ],
      "stateMutability": "nonpayable",
      "type": "function"
    }
  ],
  "bytecode": "0x6080604052620f424060005534801561001757600080fd5b50611092806100276000396000f3fe608060405234801561001057600080fd5b50600436106100625760003560e01c80632f34a3741461006757806336da0fa0146100975780633719fd58146100b55780638c45b21e146100e5578063c71e261f14610104578063caaf275114610122575b600080fd5b610081600480360381019061007c9190610951565b610155565b60405161008e9190610999565b60405180910390f35b61009f61032e565b6040516100ac91906109c3565b60405180910390f35b6100cf60048036038101906100ca9190610b24565b610334565b6040516100dc9190610999565b60405180910390f35b6100ed610435565b6040516100fb929190610db7565b60405180910390f35b61010c61061e565b60405161011991906109c3565b60405180910390f35b61013c60048036038101906101379190610951565b610627565b60405161014c9493929190610e79565b60405180910390f35b6000600180549050821061016c5760009050610329565b60008290505b600180805490506101839190610efb565b8110156102a057600180826101989190610f2f565b815481106101a9576101a8610f85565b5b9060005260206000209060040201600182815481106101cb576101ca610f85565b5b90600052602060002090600402016000820160009054906101000a900473ffffffffffffffffffffffffffffffffffffffff168160000160006101000a81548173ffffffffffffffffffffffffffffffffffffffff021916908373ffffffffffffffffffffffffffffffffffffffff160217905550600182018160010190805461025490610fe3565b61025f929190610797565b5060028201548160020155600382018160030190805461027e90610fe3565b610289929190610797565b50905050808061029890611014565b915050610172565b5060018080805490506102b39190610efb565b815481106102c4576102c3610f85565b5b9060005260206000209060040201600080820160006101000a81549073ffffffffffffffffffffffffffffffffffffffff021916905560018201600061030a9190610824565b60028201600090556003820160006103229190610824565b5050600190505b919050565b60005481565b60008060405180608001604052803373ffffffffffffffffffffffffffffffffffffffff168152602001868152602001848152602001858152509050600181908060018154018082558091505060019003906000526020600020906004020160009091909190915060008201518160000160006101000a81548173ffffffffffffffffffffffffffffffffffffffff021916908373ffffffffffffffffffffffffffffffffffffffff16021790555060208201518160010190805190602001906103ff929190610864565b50604082015181600201556060820151816003019080519060200190610426929190610864565b50505060019150509392505050565b6060806000600180549050905060008167ffffffffffffffff81111561045e5761045d6109f9565b5b60405190808252806020026020018201604052801561048c5781602001602082028036833780820191505090505b50905060008267ffffffffffffffff8111156104ab576104aa6109f9565b5b6040519080825280602002602001820160405280156104de57816020015b60608152602001906001900390816104c95790505b50905060005b838110156106105760018181548110610500576104ff610f85565b5b90600052602060002090600402016002015483828151811061052557610524610f85565b5b6020026020010181815250506001818154811061054557610544610f85565b5b9060005260206000209060040201600101805461056190610fe3565b80601f016020809104026020016040519081016040528092919081815260200182805461058d90610fe3565b80156105da5780601f106105af576101008083540402835291602001916105da565b820191906000526020600020905b8154815290600101906020018083116105bd57829003601f168201915b50505050508282815181106105f2576105f1610f85565b5b6020026020010181905250808061060890611014565b9150506104e4565b508181945094505050509091565b60008054905090565b6001818154811061063757600080fd5b90600052602060002090600402016000915090508060000160009054906101000a900473ffffffffffffffffffffffffffffffffffffffff169080600101805461068090610fe3565b80601f01602080910402602001604051908101604052809291908181526020018280546106ac90610fe3565b80156106f95780601f106106ce576101008083540402835291602001916106f9565b820191906000526020600020905b8154815290600101906020018083116106dc57829003601f168201915b50505050509080600201549080600301805461071490610fe3565b80601f016020809104026020016040519081016040528092919081815260200182805461074090610fe3565b801561078d5780601f106107625761010080835404028352916020019161078d565b820191906000526020600020905b81548152906001019060200180831161077057829003601f168201915b5050505050905084565b8280546107a390610fe3565b90600052602060002090601f0160209004810192826107c55760008555610813565b82601f106107d65780548555610813565b8280016001018555821561081357600052602060002091601f016020900482015b828111156108125782548255916001019190600101906107f7565b5b50905061082091906108ea565b5090565b50805461083090610fe3565b6000825580601f106108425750610861565b601f01602090049060005260206000209081019061086091906108ea565b5b50565b82805461087090610fe3565b90600052602060002090601f01602090048101928261089257600085556108d9565b82601f106108ab57805160ff19168380011785556108d9565b828001600101855582156108d9579182015b828111156108d85782518255916020019190600101906108bd565b5b5090506108e691906108ea565b5090565b5b808211156109035760008160009055506001016108eb565b5090565b6000604051905090565b600080fd5b600080fd5b6000819050919050565b61092e8161091b565b811461093957600080fd5b50565b60008135905061094b81610925565b92915050565b60006020828403121561096757610966610911565b5b60006109758482850161093c565b91505092915050565b60008115159050919050565b6109938161097e565b82525050565b60006020820190506109ae600083018461098a565b92915050565b6109bd8161091b565b82525050565b60006020820190506109d860008301846109b4565b92915050565b600080fd5b600080fd5b6000601f19601f8301169050919050565b7f4e487b7100000000000000000000000000000000000000000000000000000000600052604160045260246000fd5b610a31826109e8565b810181811067ffffffffffffffff82111715610a5057610a4f6109f9565b5b80604052505050565b6000610a63610907565b9050610a6f8282610a28565b919050565b600067ffffffffffffffff821115610a8f57610a8e6109f9565b5b610a98826109e8565b9050602081019050919050565b82818337600083830152505050565b6000610ac7610ac284610a74565b610a59565b905082815260208101848484011115610ae357610ae26109e3565b5b610aee848285610aa5565b509392505050565b600082601f830112610b0b57610b0a6109de565b5b8135610b1b848260208601610ab4565b91505092915050565b600080600060608486031215610b3d57610b3c610911565b5b600084013567ffffffffffffffff811115610b5b57610b5a610916565b5b610b6786828701610af6565b935050602084013567ffffffffffffffff811115610b8857610b87610916565b5b610b9486828701610af6565b9250506040610ba58682870161093c565b9150509250925092565b600081519050919050565b600082825260208201905092915050565b6000819050602082019050919050565b610be48161091b565b82525050565b6000610bf68383610bdb565b60208301905092915050565b6000602082019050919050565b6000610c1a82610baf565b610c248185610bba565b9350610c2f83610bcb565b8060005b83811015610c60578151610c478882610bea565b9750610c5283610c02565b925050600181019050610c33565b5085935050505092915050565b600081519050919050565b600082825260208201905092915050565b6000819050602082019050919050565b600081519050919050565b600082825260208201905092915050565b60005b83811015610cd3578082015181840152602081019050610cb8565b83811115610ce2576000848401525b50505050565b6000610cf382610c99565b610cfd8185610ca4565b9350610d0d818560208601610cb5565b610d16816109e8565b840191505092915050565b6000610d2d8383610ce8565b905092915050565b6000602082019050919050565b6000610d4d82610c6d565b610d578185610c78565b935083602082028501610d6985610c89565b8060005b85811015610da55784840389528151610d868582610d21565b9450610d9183610d35565b925060208a01995050600181019050610d6d565b50829750879550505050505092915050565b60006040820190508181036000830152610dd18185610c0f565b90508181036020830152610de58184610d42565b90509392505050565b600073ffffffffffffffffffffffffffffffffffffffff82169050919050565b6000610e1982610dee565b9050919050565b610e2981610e0e565b82525050565b600082825260208201905092915050565b6000610e4b82610c99565b610e558185610e2f565b9350610e65818560208601610cb5565b610e6e816109e8565b840191505092915050565b6000608082019050610e8e6000830187610e20565b8181036020830152610ea08186610e40565b9050610eaf60408301856109b4565b8181036060830152610ec18184610e40565b905095945050505050565b7f4e487b7100000000000000000000000000000000000000000000000000000000600052601160045260246000fd5b6000610f068261091b565b9150610f118361091b565b925082821015610f2457610f23610ecc565b5b828203905092915050565b6000610f3a8261091b565b9150610f458361091b565b9250827fffffffffffffffffffffffffffffffffffffffffffffffffffffffffffffffff03821115610f7a57610f79610ecc565b5b828201905092915050565b7f4e487b7100000000000000000000000000000000000000000000000000000000600052603260045260246000fd5b7f4e487b7100000000000000000000000000000000000000000000000000000000600052602260045260246000fd5b60006002820490506001821680610ffb57607f821691505b60208210810361100e5761100d610fb4565b5b50919050565b600061101f8261091b565b91507fffffffffffffffffffffffffffffffffffffffffffffffffffffffffffffffff820361105157611050610ecc565b5b60018201905091905056fea2646970667358221220b3c2c032f58df723b2b2b068f57e7ec637cb3fdd2a48c64610a07ded7a054f1f64736f6c634300080e0033",
  "immutableReferences": {},
  "source": "// SPDX-License-Identifier: MIT\r\npragma solidity ^0.8.11;\r\n\r\ncontract Product {\r\n    uint public max_products = 1000000;\r\n\r\n    function products() external view returns (uint) {\r\n        return max_products;\r\n    }\r\n    \r\n    ProductItem[] public productItems;\r\n\r\n    struct ProductItem{\r\n        address creator;\r\n        string productName;\r\n        uint256 productId;\r\n        string date;\r\n    }\r\n    \r\n    \r\n    \r\n    function addProductItem(string memory _text, string memory _date, uint256 _id) public returns (bool) {\r\n        ProductItem memory newItem = ProductItem({creator: msg.sender, productName: _text, productId: _id, date: _date});\r\n        productItems.push(newItem);\r\n        return true;\r\n    }\r\n\r\n    function getProductItems() view public returns (uint256[] memory, string[] memory) {\r\n        uint length = productItems.length;\r\n\r\n        uint256[] memory ids = new uint256[](length);\r\n        string[] memory productNames = new string[](length);\r\n\r\n        for (uint i = 0; i < length; i++) {\r\n            ids[i] = productItems[i].productId;\r\n            productNames[i] = productItems[i].productName;\r\n        }\r\n\r\n        return (ids, productNames);\r\n    }\r\n    \r\n    function deleteProductItem(uint index) public returns (bool success) {\r\n        if (index >= productItems.length) return false;\r\n\r\n        for (uint i = index; i < productItems.length - 1; i++){\r\n            productItems[i] = productItems[i+1];\r\n        }\r\n\r\n        delete productItems[productItems.length - 1];\r\n        return true;\r\n    }\r\n    \r\n}",
  "sourcePath": "C:\\Users\\daifa\\OneDrive\\Desktop\\CheckMe\\front-end\\contracts\\Product.sol",
  "compiler": {
    "name": "solc",
    "version": "0.8.14+commit.80d49f37.Emscripten.clang"
  },
  "schemaVersion": "3.4.7",
  "updatedAt": "2022-06-17T12:41:07.604Z",
  "networkType": "ethereum",
  "devdoc": {
    "kind": "dev",
    "methods": {},
    "version": 1
  },
  "userdoc": {
    "kind": "user",
    "methods": {},
    "version": 1
  }
}