{
  "contractName": "Product",
  "abi": [
    {
      "inputs": [],
      "name": "max_products",
      "outputs": [
        {
          "internalType": "uint256",
          "name": "",
          "type": "uint256"
        }
      ],
      "stateMutability": "view",
      "type": "function",
      "constant": true
    },
    {
      "inputs": [
        {
          "internalType": "uint256",
          "name": "",
          "type": "uint256"
        }
      ],
      "name": "productItems",
      "outputs": [
        {
          "internalType": "address",
          "name": "creator",
          "type": "address"
        },
        {
          "internalType": "string",
          "name": "username",
          "type": "string"
        },
        {
          "internalType": "string",
          "name": "productName",
          "type": "string"
        },
        {
          "internalType": "uint256",
          "name": "productId",
          "type": "uint256"
        },
        {
          "internalType": "uint256",
          "name": "price",
          "type": "uint256"
        },
        {
          "internalType": "string",
          "name": "date",
          "type": "string"
        }
      ],
      "stateMutability": "view",
      "type": "function",
      "constant": true
    },
    {
      "inputs": [],
      "name": "products",
      "outputs": [
        {
          "internalType": "uint256",
          "name": "",
          "type": "uint256"
        }
      ],
      "stateMutability": "view",
      "type": "function",
      "constant": true
    },
    {
      "inputs": [
        {
          "internalType": "string",
          "name": "_username",
          "type": "string"
        },
        {
          "internalType": "string",
          "name": "_text",
          "type": "string"
        },
        {
          "internalType": "string",
          "name": "_date",
          "type": "string"
        },
        {
          "internalType": "uint256",
          "name": "_id",
          "type": "uint256"
        },
        {
          "internalType": "uint256",
          "name": "_price",
          "type": "uint256"
        }
      ],
      "name": "addProductItem",
      "outputs": [
        {
          "internalType": "bool",
          "name": "",
          "type": "bool"
        }
      ],
      "stateMutability": "nonpayable",
      "type": "function"
    },
    {
      "inputs": [],
      "name": "getProductItems",
      "outputs": [
        {
          "internalType": "uint256[]",
          "name": "",
          "type": "uint256[]"
        },
        {
          "internalType": "string[]",
          "name": "",
          "type": "string[]"
        }
      ],
      "stateMutability": "view",
      "type": "function",
      "constant": true
    },
    {
      "inputs": [
        {
          "internalType": "string",
          "name": "_a",
          "type": "string"
        },
        {
          "internalType": "string",
          "name": "_b",
          "type": "string"
        }
      ],
      "name": "concat",
      "outputs": [
        {
          "internalType": "string",
          "name": "",
          "type": "string"
        }
      ],
      "stateMutability": "pure",
      "type": "function",
      "constant": true
    },
    {
      "inputs": [
        {
          "internalType": "uint256",
          "name": "_productId",
          "type": "uint256"
        }
      ],
      "name": "searchProduct",
      "outputs": [
        {
          "internalType": "string",
          "name": "",
          "type": "string"
        }
      ],
      "stateMutability": "view",
      "type": "function",
      "constant": true
    },
    {
      "inputs": [
        {
          "internalType": "uint256",
          "name": "_productId",
          "type": "uint256"
        }
      ],
      "name": "getProduct",
      "outputs": [
        {
          "components": [
            {
              "internalType": "address",
              "name": "creator",
              "type": "address"
            },
            {
              "internalType": "string",
              "name": "username",
              "type": "string"
            },
            {
              "internalType": "string",
              "name": "productName",
              "type": "string"
            },
            {
              "internalType": "uint256",
              "name": "productId",
              "type": "uint256"
            },
            {
              "internalType": "uint256",
              "name": "price",
              "type": "uint256"
            },
            {
              "internalType": "string",
              "name": "date",
              "type": "string"
            }
          ],
          "internalType": "struct Product.ProductItem",
          "name": "_productItem",
          "type": "tuple"
        }
      ],
      "stateMutability": "view",
      "type": "function",
      "constant": true
    },
    {
      "inputs": [
        {
          "internalType": "uint256",
          "name": "index",
          "type": "uint256"
        }
      ],
      "name": "deleteProductItem",
      "outputs": [
        {
          "internalType": "bool",
          "name": "success",
          "type": "bool"
        }
      ],
      "stateMutability": "nonpayable",
      "type": "function"
    }
  ],
  "bytecode": "0x6080604052620f424060005534801561001757600080fd5b50611a2b806100276000396000f3fe608060405234801561001057600080fd5b50600436106100935760003560e01c80638c45b21e116100665780638c45b21e14610146578063b9db15b414610165578063c71e261f14610195578063caaf2751146101b3578063e5e91232146101e857610093565b80632f34a3741461009857806336da0fa0146100c85780633cde01b5146100e657806389c19ddb14610116575b600080fd5b6100b260048036038101906100ad9190611121565b610218565b6040516100bf9190611169565b60405180910390f35b6100d0610433565b6040516100dd9190611193565b60405180910390f35b61010060048036038101906100fb9190611121565b610439565b60405161010d9190611247565b60405180910390f35b610130600480360381019061012b919061139e565b6105a6565b60405161013d9190611247565b60405180910390f35b61014e61073c565b60405161015c9291906115e0565b60405180910390f35b61017f600480360381019061017a9190611121565b610925565b60405161018c91906116ef565b60405180910390f35b61019d610bd8565b6040516101aa9190611193565b60405180910390f35b6101cd60048036038101906101c89190611121565b610be1565b6040516101df96959493929190611720565b60405180910390f35b61020260048036038101906101fd9190611796565b610de5565b60405161020f9190611169565b60405180910390f35b6000600180549050821061022f576000905061042e565b60008290505b600180805490506102469190611894565b81101561038d576001808261025b91906118c8565b8154811061026c5761026b61191e565b5b90600052602060002090600602016001828154811061028e5761028d61191e565b5b90600052602060002090600602016000820160009054906101000a900473ffffffffffffffffffffffffffffffffffffffff168160000160006101000a81548173ffffffffffffffffffffffffffffffffffffffff021916908373ffffffffffffffffffffffffffffffffffffffff16021790555060018201816001019080546103179061197c565b610322929190610f1b565b5060028201816002019080546103379061197c565b610342929190610f1b565b506003820154816003015560048201548160040155600582018160050190805461036b9061197c565b610376929190610f1b565b509050508080610385906119ad565b915050610235565b5060018080805490506103a09190611894565b815481106103b1576103b061191e565b5b9060005260206000209060060201600080820160006101000a81549073ffffffffffffffffffffffffffffffffffffffff02191690556001820160006103f79190610fa8565b6002820160006104079190610fa8565b600382016000905560048201600090556005820160006104279190610fa8565b5050600190505b919050565b60005481565b606060006040518060200160405280600081525090506000805b60018054905081101561055d5784600182815481106104755761047461191e565b5b9060005260206000209060060201600301540361054a5761054383600183815481106104a4576104a361191e565b5b906000526020600020906006020160020180546104c09061197c565b80601f01602080910402602001604051908101604052809291908181526020018280546104ec9061197c565b80156105395780601f1061050e57610100808354040283529160200191610539565b820191906000526020600020905b81548152906001019060200180831161051c57829003601f168201915b50505050506105a6565b9250600191505b8080610555906119ad565b915050610453565b508061059c576040518060400160405280600481526020017f66616b650000000000000000000000000000000000000000000000000000000081525091505b8192505050919050565b6060600083905060008390506000815183516105c291906118c8565b67ffffffffffffffff8111156105db576105da611273565b5b6040519080825280601f01601f19166020018201604052801561060d5781602001600182028036833780820191505090505b50905060008190506000805b85518110156106a1578581815181106106355761063461191e565b5b602001015160f81c60f81b83838061064c906119ad565b94508151811061065f5761065e61191e565b5b60200101907effffffffffffffffffffffffffffffffffffffffffffffffffffffffffffff1916908160001a9053508080610699906119ad565b915050610619565b5060005b845181101561072d578481815181106106c1576106c061191e565b5b602001015160f81c60f81b8383806106d8906119ad565b9450815181106106eb576106ea61191e565b5b60200101907effffffffffffffffffffffffffffffffffffffffffffffffffffffffffffff1916908160001a9053508080610725906119ad565b9150506106a5565b50819550505050505092915050565b6060806000600180549050905060008167ffffffffffffffff81111561076557610764611273565b5b6040519080825280602002602001820160405280156107935781602001602082028036833780820191505090505b50905060008267ffffffffffffffff8111156107b2576107b1611273565b5b6040519080825280602002602001820160405280156107e557816020015b60608152602001906001900390816107d05790505b50905060005b8381101561091757600181815481106108075761080661191e565b5b90600052602060002090600602016003015483828151811061082c5761082b61191e565b5b6020026020010181815250506001818154811061084c5761084b61191e565b5b906000526020600020906006020160020180546108689061197c565b80601f01602080910402602001604051908101604052809291908181526020018280546108949061197c565b80156108e15780601f106108b6576101008083540402835291602001916108e1565b820191906000526020600020905b8154815290600101906020018083116108c457829003601f168201915b50505050508282815181106108f9576108f861191e565b5b6020026020010181905250808061090f906119ad565b9150506107eb565b508181945094505050509091565b61092d610fe8565b60005b600180549050811015610bd15782600182815481106109525761095161191e565b5b90600052602060002090600602016003015403610bbe576001818154811061097d5761097c61191e565b5b90600052602060002090600602016040518060c00160405290816000820160009054906101000a900473ffffffffffffffffffffffffffffffffffffffff1673ffffffffffffffffffffffffffffffffffffffff1673ffffffffffffffffffffffffffffffffffffffff1681526020016001820180546109fc9061197c565b80601f0160208091040260200160405190810160405280929190818152602001828054610a289061197c565b8015610a755780601f10610a4a57610100808354040283529160200191610a75565b820191906000526020600020905b815481529060010190602001808311610a5857829003601f168201915b50505050508152602001600282018054610a8e9061197c565b80601f0160208091040260200160405190810160405280929190818152602001828054610aba9061197c565b8015610b075780601f10610adc57610100808354040283529160200191610b07565b820191906000526020600020905b815481529060010190602001808311610aea57829003601f168201915b505050505081526020016003820154815260200160048201548152602001600582018054610b349061197c565b80601f0160208091040260200160405190810160405280929190818152602001828054610b609061197c565b8015610bad5780601f10610b8257610100808354040283529160200191610bad565b820191906000526020600020905b815481529060010190602001808311610b9057829003601f168201915b505050505081525050915050610bd3565b8080610bc9906119ad565b915050610930565b505b919050565b60008054905090565b60018181548110610bf157600080fd5b90600052602060002090600602016000915090508060000160009054906101000a900473ffffffffffffffffffffffffffffffffffffffff1690806001018054610c3a9061197c565b80601f0160208091040260200160405190810160405280929190818152602001828054610c669061197c565b8015610cb35780601f10610c8857610100808354040283529160200191610cb3565b820191906000526020600020905b815481529060010190602001808311610c9657829003601f168201915b505050505090806002018054610cc89061197c565b80601f0160208091040260200160405190810160405280929190818152602001828054610cf49061197c565b8015610d415780601f10610d1657610100808354040283529160200191610d41565b820191906000526020600020905b815481529060010190602001808311610d2457829003601f168201915b505050505090806003015490806004015490806005018054610d629061197c565b80601f0160208091040260200160405190810160405280929190818152602001828054610d8e9061197c565b8015610ddb5780601f10610db057610100808354040283529160200191610ddb565b820191906000526020600020905b815481529060010190602001808311610dbe57829003601f168201915b5050505050905086565b6000806040518060c001604052803373ffffffffffffffffffffffffffffffffffffffff168152602001888152602001878152602001858152602001848152602001868152509050600181908060018154018082558091505060019003906000526020600020906006020160009091909190915060008201518160000160006101000a81548173ffffffffffffffffffffffffffffffffffffffff021916908373ffffffffffffffffffffffffffffffffffffffff1602179055506020820151816001019080519060200190610ebc929190611034565b506040820151816002019080519060200190610ed9929190611034565b50606082015181600301556080820151816004015560a0820151816005019080519060200190610f0a929190611034565b505050600191505095945050505050565b828054610f279061197c565b90600052602060002090601f016020900481019282610f495760008555610f97565b82601f10610f5a5780548555610f97565b82800160010185558215610f9757600052602060002091601f016020900482015b82811115610f96578254825591600101919060010190610f7b565b5b509050610fa491906110ba565b5090565b508054610fb49061197c565b6000825580601f10610fc65750610fe5565b601f016020900490600052602060002090810190610fe491906110ba565b5b50565b6040518060c00160405280600073ffffffffffffffffffffffffffffffffffffffff16815260200160608152602001606081526020016000815260200160008152602001606081525090565b8280546110409061197c565b90600052602060002090601f01602090048101928261106257600085556110a9565b82601f1061107b57805160ff19168380011785556110a9565b828001600101855582156110a9579182015b828111156110a857825182559160200191906001019061108d565b5b5090506110b691906110ba565b5090565b5b808211156110d35760008160009055506001016110bb565b5090565b6000604051905090565b600080fd5b600080fd5b6000819050919050565b6110fe816110eb565b811461110957600080fd5b50565b60008135905061111b816110f5565b92915050565b600060208284031215611137576111366110e1565b5b60006111458482850161110c565b91505092915050565b60008115159050919050565b6111638161114e565b82525050565b600060208201905061117e600083018461115a565b92915050565b61118d816110eb565b82525050565b60006020820190506111a86000830184611184565b92915050565b600081519050919050565b600082825260208201905092915050565b60005b838110156111e85780820151818401526020810190506111cd565b838111156111f7576000848401525b50505050565b6000601f19601f8301169050919050565b6000611219826111ae565b61122381856111b9565b93506112338185602086016111ca565b61123c816111fd565b840191505092915050565b60006020820190508181036000830152611261818461120e565b905092915050565b600080fd5b600080fd5b7f4e487b7100000000000000000000000000000000000000000000000000000000600052604160045260246000fd5b6112ab826111fd565b810181811067ffffffffffffffff821117156112ca576112c9611273565b5b80604052505050565b60006112dd6110d7565b90506112e982826112a2565b919050565b600067ffffffffffffffff82111561130957611308611273565b5b611312826111fd565b9050602081019050919050565b82818337600083830152505050565b600061134161133c846112ee565b6112d3565b90508281526020810184848401111561135d5761135c61126e565b5b61136884828561131f565b509392505050565b600082601f83011261138557611384611269565b5b813561139584826020860161132e565b91505092915050565b600080604083850312156113b5576113b46110e1565b5b600083013567ffffffffffffffff8111156113d3576113d26110e6565b5b6113df85828601611370565b925050602083013567ffffffffffffffff811115611400576113ff6110e6565b5b61140c85828601611370565b9150509250929050565b600081519050919050565b600082825260208201905092915050565b6000819050602082019050919050565b61144b816110eb565b82525050565b600061145d8383611442565b60208301905092915050565b6000602082019050919050565b600061148182611416565b61148b8185611421565b935061149683611432565b8060005b838110156114c75781516114ae8882611451565b97506114b983611469565b92505060018101905061149a565b5085935050505092915050565b600081519050919050565b600082825260208201905092915050565b6000819050602082019050919050565b600082825260208201905092915050565b600061151c826111ae565b6115268185611500565b93506115368185602086016111ca565b61153f816111fd565b840191505092915050565b60006115568383611511565b905092915050565b6000602082019050919050565b6000611576826114d4565b61158081856114df565b935083602082028501611592856114f0565b8060005b858110156115ce57848403895281516115af858261154a565b94506115ba8361155e565b925060208a01995050600181019050611596565b50829750879550505050505092915050565b600060408201905081810360008301526115fa8185611476565b9050818103602083015261160e818461156b565b90509392505050565b600073ffffffffffffffffffffffffffffffffffffffff82169050919050565b600061164282611617565b9050919050565b61165281611637565b82525050565b600060c0830160008301516116706000860182611649565b50602083015184820360208601526116888282611511565b915050604083015184820360408601526116a28282611511565b91505060608301516116b76060860182611442565b5060808301516116ca6080860182611442565b5060a083015184820360a08601526116e28282611511565b9150508091505092915050565b600060208201905081810360008301526117098184611658565b905092915050565b61171a81611637565b82525050565b600060c0820190506117356000830189611711565b8181036020830152611747818861120e565b9050818103604083015261175b818761120e565b905061176a6060830186611184565b6117776080830185611184565b81810360a0830152611789818461120e565b9050979650505050505050565b600080600080600060a086880312156117b2576117b16110e1565b5b600086013567ffffffffffffffff8111156117d0576117cf6110e6565b5b6117dc88828901611370565b955050602086013567ffffffffffffffff8111156117fd576117fc6110e6565b5b61180988828901611370565b945050604086013567ffffffffffffffff81111561182a576118296110e6565b5b61183688828901611370565b93505060606118478882890161110c565b92505060806118588882890161110c565b9150509295509295909350565b7f4e487b7100000000000000000000000000000000000000000000000000000000600052601160045260246000fd5b600061189f826110eb565b91506118aa836110eb565b9250828210156118bd576118bc611865565b5b828203905092915050565b60006118d3826110eb565b91506118de836110eb565b9250827fffffffffffffffffffffffffffffffffffffffffffffffffffffffffffffffff0382111561191357611912611865565b5b828201905092915050565b7f4e487b7100000000000000000000000000000000000000000000000000000000600052603260045260246000fd5b7f4e487b7100000000000000000000000000000000000000000000000000000000600052602260045260246000fd5b6000600282049050600182168061199457607f821691505b6020821081036119a7576119a661194d565b5b50919050565b60006119b8826110eb565b91507fffffffffffffffffffffffffffffffffffffffffffffffffffffffffffffffff82036119ea576119e9611865565b5b60018201905091905056fea26469706673582212206a868b3ea3a6069eb4d49743f9675f3ead96715e088ded9640b82fbfd847c9a664736f6c634300080e0033",
  "immutableReferences": {},
  "source": "// SPDX-License-Identifier: MIT\r\npragma solidity ^0.8.11;\r\n\r\ncontract Product {\r\n    uint public max_products = 1000000;\r\n\r\n    function products() external view returns (uint) {\r\n        return max_products;\r\n    }\r\n    \r\n    ProductItem[] public productItems;\r\n\r\n    struct ProductItem{\r\n        address creator;\r\n        string username;\r\n        string productName;\r\n        uint256 productId;\r\n        uint256 price;\r\n        string date;\r\n    }\r\n    \r\n    \r\n    \r\n    function addProductItem(string memory _username, string memory _text, string memory _date, uint256 _id, uint256 _price) public returns (bool) {\r\n        ProductItem memory newItem = ProductItem({creator: msg.sender, username:_username, productName: _text, productId: _id, date: _date, price: _price});\r\n        productItems.push(newItem);\r\n        return true;\r\n    }\r\n\r\n    function getProductItems() view public returns (uint256[] memory, string[] memory) {\r\n        uint length = productItems.length;\r\n\r\n        uint256[] memory ids = new uint256[](length);\r\n        string[] memory productNames = new string[](length);\r\n\r\n        for (uint i = 0; i < length; i++) {\r\n            ids[i] = productItems[i].productId;\r\n            productNames[i] = productItems[i].productName;\r\n        }\r\n\r\n        return (ids, productNames);\r\n    }\r\n\r\n     function concat(string memory _a, string memory _b) public pure returns (string memory){\r\n        bytes memory bytes_a = bytes(_a);\r\n        bytes memory bytes_b = bytes(_b);\r\n        string memory length_ab = new string(bytes_a.length + bytes_b.length);\r\n        bytes memory bytes_c = bytes(length_ab);\r\n        uint k = 0;\r\n        for (uint i = 0; i < bytes_a.length; i++) bytes_c[k++] = bytes_a[i];\r\n        for (uint i = 0; i < bytes_b.length; i++) bytes_c[k++] = bytes_b[i];\r\n        return string(bytes_c);\r\n    }\r\n     \r\n     function searchProduct(uint _productId)  public view returns (string memory) {\r\n        string memory output = \"\";\r\n        bool found = false;\r\n        for (uint i = 0; i < productItems.length; i++){\r\n            if (productItems[i].productId == _productId){\r\n                        output=concat(output, productItems[i].productName);\r\n                        found = true;\r\n            }\r\n        }\r\n        if(!found){\r\n            output = \"fake\";\r\n        }\r\n        return output;\r\n    }\r\n\r\n    function getProduct(uint _productId)  public view returns (ProductItem memory _productItem ){\r\n        for (uint i = 0; i < productItems.length; i++){\r\n            if (productItems[i].productId == _productId){\r\n                        return productItems[i];\r\n            }\r\n        }\r\n    }\r\n    \r\n    function deleteProductItem(uint index) public returns (bool success) {\r\n        if (index >= productItems.length) return false;\r\n\r\n        for (uint i = index; i < productItems.length - 1; i++){\r\n            productItems[i] = productItems[i+1];\r\n        }\r\n\r\n        delete productItems[productItems.length - 1];\r\n        return true;\r\n    }\r\n    \r\n}",
  "sourcePath": "C:\\Users\\daifa\\OneDrive\\Desktop\\CheckMe\\front-end\\contracts\\Product.sol",
  "compiler": {
    "name": "solc",
    "version": "0.8.14+commit.80d49f37.Emscripten.clang"
  },
  "schemaVersion": "3.4.7",
  "updatedAt": "2022-06-26T15:17:24.578Z",
  "networkType": "ethereum",
  "devdoc": {
    "kind": "dev",
    "methods": {},
    "version": 1
  },
  "userdoc": {
    "kind": "user",
    "methods": {},
    "version": 1
  }
}