{
  "contractName": "ProductChain",
  "abi": [
    {
      "inputs": [],
      "name": "getAmount",
      "outputs": [
        {
          "internalType": "uint256",
          "name": "",
          "type": "uint256"
        }
      ],
      "stateMutability": "view",
      "type": "function",
      "constant": true
    }
  ],
  "bytecode": "0x608060405261271060005534801561001657600080fd5b5060b6806100256000396000f3fe6080604052348015600f57600080fd5b506004361060285760003560e01c8063d321fe2914602d575b600080fd5b60336047565b604051603e91906067565b60405180910390f35b60008054905090565b6000819050919050565b6061816050565b82525050565b6000602082019050607a6000830184605a565b9291505056fea26469706673582212206c48eeab92fd14dc7dd4dd503d427b32660144757c4aa324486274309e305d2564736f6c634300080e0033",
  "immutableReferences": {},
  "source": "// SPDX-License-Identifier: MIT\npragma solidity >=0.4.22 <0.9.0;\n\n\ncontract ProductChain {\n\n  uint amount = 10000;\n\n\tfunction getAmount() public view returns(uint) {\n\t\treturn amount;\n\t}\n}\n",
  "sourcePath": "/home/dani/Desktop/Work/CheckMe/back-end/contracts/ProductChain.sol",
  "compiler": {
    "name": "solc",
    "version": "0.8.14+commit.80d49f37.Emscripten.clang"
  },
  "schemaVersion": "3.4.7",
  "updatedAt": "2022-05-31T17:36:13.258Z",
  "networkType": "ethereum",
  "devdoc": {
    "kind": "dev",
    "methods": {},
    "version": 1
  },
  "userdoc": {
    "kind": "user",
    "methods": {},
    "version": 1
  }
}